:020000040800F2
:10000000981B0120AD030008D9850008DB85000896
:10001000DF850008E3850008E78500080000000090
:10002000000000000000000000000000BF03000806
:10003000EB850008000000006F8400085D82000866
:10004000C7030008C7030008C7030008C703000868
:10005000C7030008C7030008F1850008F3850008FE
:10006000F5850008F7850008F9850008C703000832
:10007000C7030008C7030008C7030008C703000838
:10008000C7030008C7030008C7030008C703000828
:100090000DE20008C7030008C703000889C901086A
:1000A000C7030008C7030008B12E0108C7030008F2
:1000B000C7030008613101089F310108C703000828
:1000C000C7030008C7030008C7030008C7030008E8
:1000D000C7030008592201086B220108C703000862
:1000E000FB850008C7030008C7030008C703000812
:1000F000C7030008C7030008C7030008C7030008B8
:10010000C70300089D4E01080D500108C7030008F1
:10011000C7030008C7030008C7030008C703000897
:10012000C7030008C7030008C7030008A54E01085D
:10013000C7030008C7030008C7030008C703000877
:10014000FBE10008C7030008C7030008C703000855
:10015000C7030008C7030008C7030008C703000857
:10016000C7030008C7030008C7030008C703000847
:10017000C7030008C7030008C7030008C703000837
:10018000C7030008C7030008DFF80CD023F03EFACD
:1001900000480047FD850008981B01200CB5002091
:1001A000019000907648006840F4803074490860FF
:1001B00000BF7348006800F4003000900198401CB4
:1001C0000190009818B90198B0F5A04FF1D16C4892
:1001D000006800F4003010B10120009001E0002020
:1001E00000900098012846D165484030006840F0F2
:1001F00080506349403108606248006840F44040E4
:10020000604908605E48083000685D490831086050
:100210000846006840F4004008600846006840F462
:10022000A05008605848091F0860081F006840F087
:100230008070091F086000BF5148006800F000701E
:100240000028F9D040F20570504908604C48083049
:10025000006820F003004A49083108600846006839
:1002600040F00200086000BF45480830006800F018
:100270000C000828F8D10CBD10B54548006840F4C2
:100280007000434908603E48006840F001003C4966
:10029000086000203A4908310860394800683D4943
:1002A0000840374908603C48091D0860081F00687D
:1002B00020F48020091F0860002031490C310860BB
:1002C000FFF76CFF4FF0006031498039086010BDC6
:1002D00070B500200022022300240221284D083599
:1002E0002D6805F00C0020B1042806D0082834D170
:1002F00007E02A4D2A4E356033E02A4D284E3560FE
:100300002FE01F4D2D1D2D68C5F380541C4D2D1D54
:100310002D6805F03F0154B1224DB5FBF1F5184EA3
:10032000361D3668C6F3881605FB06F209E01B4D3C
:10033000B5FBF1F5124E361D3668C6F3881605FB7F
:1003400006F20F4D2D1D2D68C5F301456D1C6B0088
:10035000B2FBF3F5124E356003E0104D104E3560E0
:1003600000BF00BF064D08352D68C5F303150E4EBE
:10037000705D0B4D2D68C540094E356070BD0000A5
:1003800000380240007000400C544007003C02401E
:1003900088ED00E0FFFFF6FE103000240024F4009A
:1003A00000000020001BB700040000200648804722
:1003B00006480047FEE7FEE7FEE7FEE7FEE7FEE74A
:1003C000FEE7FEE7FEE7FEE7790200088901000884
:1003D00032490143324A1160704770B50021002351
:1003E0000F22C4781CB32E4C246804F4E064C4F5D6
:1003F000E064C4F30721C1F10404E3B20A41447884
:100400009C40E1B28478144021430C07210E254C16
:1004100005786155047804F01F050124AC40057887
:100420006D11AD0005F1E025C5F8004109E0047843
:1004300004F01F050124AC401B4D0678761145F8E9
:10044000264070BD194A0A400243154B1B1F1A6013
:10045000704739B1124A121D12680243104B1B1D1E
:100460001A6006E00E4A121D126882430C4B1B1DD7
:100470001A607047042808D14FF0E021096941F063
:1004800004014FF0E022116107E04FF0E02109691B
:1004900021F004014FF0E022116170470000FA05DD
:1004A0000CED00E000E400E080E100E080FFFF1FD1
:1004B00010B50446FE48844209D10121480601F0E6
:1004C000D3FB00214FF0007001F0CEFB08E00121CA
:1004D000880601F0C9FB00214FF0806001F0C4FBE9
:1004E00010BD30B5024600200023146824F0020439
:1004F0001460146844F00104146000E05B1C54684C
:1005000004F001041CB94FF6FF74A342F6D15468FD
:1005100004F001040CB900206CE08C79012C04D1AA
:10052000146844F08004146003E0146824F080042C
:100530001460CC79012C04D1146844F04004146098
:1005400003E0146824F0400414600C7A012C04D1F8
:10055000146844F02004146003E0146824F02004BC
:1005600014604C7A012C04D1146844F01004146017
:1005700003E0146824F0100414608C7A012C04D178
:10058000146844F00804146003E0146824F00804BC
:100590001460CC7A012C04D1146844F00404146073
:1005A00003E0146824F0040414608C78A407CD7868
:1005B00044EA05640D7944EA05444D7944EA05545A
:1005C0000D886D1E2C43D461146824F0010414605E
:1005D000002300E05B1C546804F001041CB14FF6DA
:1005E000FF74A342F6D1546804F001040CB100205A
:1005F00000E0012030BD10B50021837A012202FA0B
:1006000003F1AC4A126842F00102AA4B1A60A94AEF
:100610001C3212688A43A74B1C331A60027BCAB98A
:10062000A44A0C3212688A43A24B0C331A604288E7
:10063000C38842EA03439F4A4032847A42F8343006
:100640000288838842EA03439A4A4032847A02EB62
:10065000C4025360027B012A19D1964A0C321268F7
:100660000A43944B0C331A604288038842EA0343DE
:10067000904A4032847A42F83430C288838842EA11
:1006800003438C4A4032847A02EBC4025360C27A3C
:100690003AB9884A121D12688A43864B1B1D1A609C
:1006A00006E0844A121D12680A43824B1B1D1A6021
:1006B000028932B97F4A143212688A437D4B14335F
:1006C0001A600289012A06D17A4A143212680A4352
:1006D000784B14331A60427B012A06D1754A1C32CA
:1006E00012680A43734B1C331A60724A126822F074
:1006F0000102704B1A6010BD00218171C17101723D
:1007000041728172C1728170C17003210171022135
:1007100041710121018070476649096841F001017A
:10072000644A11601146096843F60E729143614AAA
:1007300011601146096841EA0021116011460968FB
:1007400021F001011160704721B1026842F480324A
:10075000026003E0026822F4803202607047E1B177
:10076000026842F0800202604FF4C272125842F4F2
:1007700080734FF4C27213504FF4CA72125842F48D
:1007800080734FF4CA7213504FF4D272125842F46D
:1007900080734FF4D27213501BE0026822F0800283
:1007A00002604FF4C272125822F480734FF4C27286
:1007B00013504FF4CA72125822F480734FF4CA7265
:1007C00013504FF4D272125822F480734FF4D27245
:1007D0001350704710B502460020936803F0806301
:1007E000B3F1806F00D110E0936803F00063B3F1C0
:1007F000006F01D1012008E0936803F08053B3F14A
:10080000805F01D1022000E00420042879D002F5A5
:10081000C07303EB00131B6803F0010402F5C073FF
:1008200003EB00131C600B7A7BB94B7A0C8843EA0C
:10083000445302F5C07404EB00142468234302F50A
:10084000C07404EB0014236010E00B7A4C6843EA98
:10085000C4034C7A234302F5C07404EB00142468EB
:10086000234302F5C07404EB001423608B7A03F079
:100870000F038B7202F5C07303EB00135B6823F068
:100880000F0402F5C07303EB00135C6002F5C07344
:1008900003EB00135B688C7A234302F5C07404EB0E
:1008A000001463608B7B1C064B7B44EA034403E02B
:1008B00000640040006600400B7B44EA0323CC7ACE
:1008C000234302F5C07404EB0014A3608B7C1C0668
:1008D0004B7C44EA03440B7C44EA0323CC7B234354
:1008E00002F5C07404EB0014E36002F5C07303EB7F
:1008F00000131B6843F0010402F5C07303EB0013FF
:100900001C6010BD10B50246002321B1012907D09B
:1009100002290FD109E09068F94C00EA04030BE0CA
:100920009068F84C00EA040306E09068F64C00EA90
:10093000040301E0002300BF00BFF44C181BA342D6
:1009400016D007DC83B16FF08060184470B10228C4
:1009500018D111E0B0F5007F10D0ED4C204448B123
:10096000B0F5003F0ED10BE002230DE000230BE0B9
:10097000002309E0002307E0012305E0012303E051
:10098000012301E0002300BF00BFD8B210BD21B198
:10099000012907D002290FD109E0826842F08002C4
:1009A00082600AE0826842F40042826005E0826868
:1009B00042F40002826000E000BF00BF704710B543
:1009C00000F5D87303EB01131B6803F004031372E3
:1009D000137A53B900F5D87303EB01131B6840F287
:1009E000FF7404EA5353136009E000F5D87303EB76
:1009F00001131B686FF0604404EAD303536000F5F1
:100A0000D87303EB01131B6803F00203537200F564
:100A1000D87303EB01135B6803F00F03937200F5C7
:100A2000D87303EB01135B681B0AD37400F5D8730A
:100A300003EB01139B68D37200F5D87303EB01132A
:100A40009B681C0A147300F5D87303EB01139B68B1
:100A50001C0C547300F5D87303EB01139B681B0E39
:100A6000937300F5D87303EB0113DB68D37300F5C0
:100A7000D87303EB0113DB681C0A147400F5D873F8
:100A800003EB0113DB681C0C547400F5D87303EB03
:100A90000113DB681B0E937421B9C36843F0200374
:100AA000C36003E0036943F02003036110BD21B973
:100AB000C26842F02002C26003E0026942F02002F4
:100AC000026170470246002019B9D36803F00300A1
:100AD00006E0012903D1136903F0030000E00020C0
:100AE000704710B502460B4600204FF6FF71BBB9A8
:100AF000146824F0020444F00104146000E0491E6C
:100B0000546804F00304012C01D00029F7D1546883
:100B100004F00304012C01D0002032E0012030E079
:100B2000012B13D1146824F00304146000E0491E63
:100B3000546804F003040CB10029F8D1546804F09F
:100B400003040CB100201CE001201AE0022B17D195
:100B5000146824F0010444F00204146000E0491E0B
:100B6000546804F00304022C01D00029F7D1546822
:100B700004F00304022C01D0002002E0012000E078
:100B8000002010BD014600200A6822F0010242F058
:100B900002020A604A6802F00302022A00D1012020
:100BA000704701464FF6FF7200200B6823F00203E6
:100BB0000B6000E0521E4B6803F00203022B01D1D0
:100BC000002AF7D14B6803F00203022B00D001206A
:100BD0007047014600208A6902F0700070470146A4
:100BE00000208A69100E7047014600208A69C2F30E
:100BF000074070471AB143690B43436102E0436900
:100C00008B434361704710B50246002001F4700326
:100C100043B19369C1F3130423400BB101202DE0CC
:100C200000202BE001F0807343B15368C1F313043B
:100C300023400BB1012021E000201FE001F0006300
:100C400043B19368C1F3130423400BB1012015E0B5
:100C5000002013E001F0007343B1D368C1F3130423
:100C600023400BB1012009E0002007E01369C1F324
:100C7000130423400BB1012000E0002010BD00222E
:100C8000244B994202D10023836111E0C1F3130286
:100C900001F000730BB1C2600AE001F080630BB198
:100CA000026105E001F000630BB1826000E0426088
:100CB00070470246002002EA01030BB1012000E068
:100CC0000020704770B504460D4600266069284034
:100CD000002872D0B5F5807F69D01DDC082D42D088
:100CE00006DC012D2DD0022D31D0042D7FD134E032
:100CF000102D3ED0202D42D0402D78D145E000006F
:100D000003000004000300080000031000010008B5
:100D10000001FFF77000F030B5F5004F61D009DC3D
:100D2000B5F5007F4AD0B5F5806F4DD0B5F5006FB1
:100D30005DD150E0B5F5803F2DD0B5F5003F56D1DF
:100D40002FE0A0685549FFF7B4FF064651E0E06880
:100D50000321FFF7AEFF06464BE0E0680821FFF7EE
:100D6000A8FF064645E0E0681021FFF7A2FF06460F
:100D70003FE020690321FFF79CFF064639E0206928
:100D80000821FFF796FF064633E020691021FFF7A0
:100D900090FF06462DE060680821FFF78AFF0646AF
:100DA00027E060681021FFF784FF064621E0A06974
:100DB0000121FFF77EFF06461BE01BE0A069022130
:100DC000FFF777FF064614E0A0690421FFF771FFE3
:100DD00006460EE00BE0A0697021FFF76AFF0646A9
:100DE00007E060680421FFF764FF064601E0002683
:100DF00000BF00E00026304670BDB1F5007F3AD05C
:100E00000FDC202928D006DC01291CD004291DD0A4
:100E1000082940D11DE0402921D0B1F5807F3AD189
:100E200026E0B1F5004F31D006DCB1F5806F25D05A
:100E3000B1F5006F2FD124E0B1F5803F12D0B1F5AC
:100E4000003F28D111E0154A826025E00822C260E7
:100E500022E01022C2601FE0082202611CE0102282
:100E6000026119E00822426016E01022426013E09D
:100E70000422426010E0042242600DE0042242603D
:100E80000AE0002282610422426005E000228261C1
:100E90000422426000E000BF00BF70470101010072
:100EA000002061490860C8601F20486100208861F7
:100EB000C86108624862704700215B4A126844F2C8
:100EC00001039A43584B1A601A46116840F6F272B1
:100ED0009143028843881A4383881A43C3881A437C
:100EE00003891A4343891A4383891A4311434E4A9B
:100EF000116070470021018041808180C1800181A3
:100F00004181818170474188028841EA0241464A15
:100F10001162C188828841EA0241434A51627047A6
:100F200030B14149096841F004013F4A116005E0D0
:100F30003D49096821F004013B4A1160704701787E
:100F4000427841EA0221827841EA0241C27841EACC
:100F50000261354A9161704730B13349096841F007
:100F60000801314A116005E02F49096821F00801A4
:100F70002D4A1160704730B12B49096841F4804116
:100F8000294A116005E02849096821F48041264A70
:100F90001160704730B12449096841F00101224ACB
:100FA000116005E02049096821F001011E4A116025
:100FB00070471D48806A704729B11B4AD2680243B6
:100FC000194BDA6006E0184AD268C3439BB21A4054
:100FD000154BDA60704710B50146002000230A1354
:100FE00012B9114CA36806E0022A02D10E4C6368C4
:100FF00001E00D4C236903EA01040CB1012000E07B
:10100000002010BD084948617047014600200022B9
:10101000054B1B6903EA01020AB1012000E0002030
:10102000704701494861704700000550016821F090
:10103000010101600021016041608160C1600161C6
:1010400021214161DB49884204D13D21D94A103A2E
:1010500091608CE0D7491831884205D14FF4746112
:10106000D44A103A916082E0D2493031884205D1A9
:101070004FF47411CF4A103A916078E0CD4948316D
:10108000884205D14FF07461CA4A103A91606EE00F
:10109000C8496031884204D1C749C64A103AD16074
:1010A00065E0C4497831884204D1C449C14A103A44
:1010B000D1605CE0BF499031884204D1C049BD4A4B
:1010C000103AD16053E0BB49A831884205D14FF0B6
:1010D0003D51B84A103AD16049E0BA49884204D13A
:1010E0003D21B84A083A116041E0B64918318842BA
:1010F00005D14FF47461B34A083A116037E0B14941
:101100003031884205D14FF47411AE4A083A11606B
:101110002DE0AC494831884205D14FF07461A94AAD
:10112000083A116023E0A7496031884204D1A249FE
:10113000A44A121F11601AE0A2497831884204D1F2
:101140009E49A04A121F116011E09E4990318842C9
:1011500004D19B499B4A121F116008E09949A831AC
:10116000884204D14FF03D51964A121F11607047DA
:1011700010B500220268944B1A40CC680B682343D8
:101180004C6923438C692343CC6923430C6A234372
:101190004C6A23438C6A23434C6B23438C6B23435D
:1011A0001A430260426922F00702D1E90B3423435B
:1011B0001A4342610B6943604B6883608B68C3606C
:1011C00010BD0021016041608160C1600161416129
:1011D0008161C161016241628162C16201634163F7
:1011E0008163704721B1026842F00102026003E0AE
:1011F000026822F001020260704721B1026842F4E5
:101200000042026003E0026822F40042026070477C
:1012100021B1026842F02002026003E0026822F07D
:10122000200202607047416070470146486880B202
:10123000704722B1036843F40023036003E00368AE
:1012400023F4002303600161704721B1026842F476
:101250008022026003E0026822F48022026070476C
:101260000AB1016100E0C1607047014600200A68D0
:1012700002F400220AB1012000E00020704701467C
:1012800000200A6802F001020AB1012000E00020FB
:101290007047014600204A6902F03800704730B5B7
:1012A00003460A4600200024464DAB4202D2414983
:1012B000103901E04349103902F000550DB14C6876
:1012C00000E00C68414D2C4004EA02050DB10120FC
:1012D00000E0002030BD02463A4B9A4202D2354827
:1012E000103801E03748103801F000531BB1374B7C
:1012F0000B40C36002E0354B0B408360704710B574
:1013000001F080034BB122B1436943F08003436194
:1013100003E0436923F08003436180290BD02AB1A5
:10132000036801F01E042343036004E0036801F036
:101330001E04A343036010BD70B5024600200024C4
:101340000025204EB24202D21A4B103B01E01D4B49
:10135000103B1F4E0E4036B11E2606EAD1241668F9
:1013600006EA040502E0566906F0800501F0005621
:101370000EB15C6800E01C68144E344004EA0106BB
:1013800016B10DB1012000E0002070BD02460D4BEA
:101390009A4202D20748103801E00A48103801F09A
:1013A00000531BB1094B0B40C36002E0074B0B40DD
:1013B00083607047106002403D000020400F002015
:1013C00000003D20106402403F801CF07D0F7D0F27
:1013D0003C0F3C0F002041490860091D0860091DB1
:1013E0000860091D08603E483C4914310860704798
:1013F00000213A498279002A3AD00A4612680368E5
:101400009A430B461A600A1D126803689A430B1D23
:101410001A60027911440A6803681A430A602F4A65
:101420000832126803689A432C4B08331A601A1D5D
:10143000126803689A43294B0C331A604279102AC8
:101440000ED11A1F126803681A43244B08331A601E
:101450001A1D126803681A43204B0C331A600DE002
:101460001E49427911440A6803681A430A6005E07C
:10147000027911440A6803689A430A6070470021A0
:10148000016001710C214171002181717047134984
:10149000103109680143114A10321160704701464A
:1014A00000200E4A143212680A400AB1012000E0FE
:1014B0000020704709491431086070470146002038
:1014C000064A143212680A400AB1012000E00020E6
:1014D000704702491431086070470000003C014029
:1014E000FFFF7F0010B504469848844208D10121CF
:1014F000084600F086FB0021012000F082FB76E028
:101500009348844208D10121022000F07AFB002197
:10151000022000F076FB6AE08E48844208D1012167
:10152000042000F06EFB0021042000F06AFB5EE066
:101530008948844208D10121082000F062FB002183
:10154000082000F05EFB52E08448844208D101216B
:10155000102000F056FB0021102000F052FB46E066
:101560007F48844208D10121202000F04AFB00215D
:10157000202000F046FB3AE07A48844208D101215D
:10158000402000F03EFB0021402000F03AFB2EE01E
:101590007548844208D10121802000F032FB0021EF
:1015A000802000F02EFB22E07048844208D1012107
:1015B000801500F026FB0021A01500F022FB16E0AC
:1015C0006B48844208D10121401500F01AFB00212C
:1015D000601500F016FB0AE06648844207D101213D
:1015E000001500F00EFB0021201500F00AFB10BDD5
:1015F000F0B50A4600210023002400BF3DE001258C
:1016000005FA01F3156805EA03049C4234D1056824
:101610004F000326BE40B543056015794E00B54026
:101620000668354305601579012D02D01579022D24
:1016300016D185684F000326BE40B54385605579B5
:101640004E00B540866835438560456801268E406A
:10165000B5434560456896798E40B6B235434560DE
:10166000C5684F000326BE40B543C560D5794E001E
:10167000B540C6683543C560491C1029BFD3F0BDCD
:101680004FF6FF7101600021017141718171C171DB
:10169000704708B54FF480320092009A0A430092D6
:1016A000009AC261C161009AC261C2690092C269B6
:1016B000009208BD0246002013690B400BB10120C7
:1016C00000E0002070470146086980B2704702467A
:1016D000002053690B400BB1012000E0002070474F
:1016E0000146486980B27047018370474183704763
:1016F0000AB1018300E0418370474161704742694C
:101700004A4042617047F0B5002300244D07ED0EBA
:1017100002FA05F3CE1000F1200555F826504E07C9
:10172000F70E0F26BE40B543CF1000F1200646F855
:101730002750CE1000F1200555F8265045EA030445
:10174000CE1000F1200545F82640F0BD0000024013
:101750000004024000080240000C02400010024059
:101760000014024000180240001C02400020024009
:101770000024024000280240F948006840F00100BF
:10178000F74908600020F64908310860F44800680D
:10179000F4490840F2490860F348091D0860F3481D
:1017A000EF4984310860F0481038091D0860EC48A2
:1017B000006820F48020EA4908600020E8490C31E4
:1017C0000860E7498C31086070470021E44A921CA8
:1017D000117011460870704710B5014600220023B1
:1017E00000204A11012A02D1DD4C236808E0022AB8
:1017F00003D1DB4C7034236802E0D94C7434236885
:1018000001F01F02012494401C400CB1012000E0B3
:10181000002010BD38B5002000900024002500BF36
:101820003120FFF7D9FF05460098401C0090009832
:10183000B0F5A04F01D0002DF2D03120FFF7CCFF42
:1018400008B1012400E00024204638BD01460020F4
:10185000C34A106820F0F80040EAC10010607047E9
:10186000C349086070470021BD4A70321170117081
:10187000012802D004280AD104E00121B84A7032BC
:10188000117005E00521B64A7032117000E000BF0A
:1018900000BF7047B7490860704770B5049C41EAC3
:1018A00082150126C6EB530645EA0645054345EA7F
:1018B0000465AB4E361D356070BDAD490866704796
:1018C000820142EA0172A64B84331A607047A8492C
:1018D0008866704710B5830143EA016343EA0273E7
:1018E0009F4C8834236010BDA14908677047A04908
:1018F000C864704702460020994B0833186820F0EE
:10190000EC6042EA01031843954B083318607047B6
:1019100002460020924B0833186820F0784042EAD3
:10192000010318438E4B08331860704701460020AE
:101930008B4A0832106820F003000843106070479B
:1019400087480830006800F00C007047014600200E
:10195000834A0832106820F0F00008431060704796
:10196000014600207E4A0832106820F4E050084307
:101970001060704701460020794A0832106820F450
:10198000604040EAC10010607047F0B500210022BD
:101990000024022500260223714F08373F6807F014
:1019A0000C0121B1042905D0082937D105E0724F77
:1019B000076036E0714F076033E0694F3F1D3F68B5
:1019C000C7F38056664F3F1D3F6807F03F036EB177
:1019D0006A4FB7FBF3F7DFF888C10CF1040CDCF8B1
:1019E00000C0CCF3881C07FB0CF40CE0624FB7FB83
:1019F000F3F7DFF86CC10CF1040CDCF800C0CCF399
:101A0000881C07FB0CF4564F3F1D3F68C7F3014786
:101A10007F1C7D00B4FBF5F7076002E0564F0760BE
:101A200000BF00BF4E4F08373F6807F0F0010909BB
:101A3000534F7A5C0768D7404760494F08373F6883
:101A400007F4E051890A4E4F7A5C4768D7408760B7
:101A5000434F08373F6807F46041490B484F7A5CB1
:101A60004768D740C760F0BD002100F44072B2F56E
:101A7000407F0AD13A4A0832116821F4F811414AEC
:101A800002401143364A08321160354A70321268FA
:101A9000C0F30B031A43324B70331A607047354959
:101AA0004439086070473349403908607047364907
:101AB0000860704701460020294A8C32106820F4E3
:101AC000401008431060704701460020244A8C32C1
:101AD000106820F440000843106070470146002061
:101AE0001F4A8C32106820F01F004A1E10431C4A07
:101AF0008C321060704701460020194A8C32106801
:101B000020F4F8504A1E40EA0220154A8C32106038
:101B1000704701460020124A8C32106820F4403091
:101B200008431060704719490860704739B10C4A82
:101B30003032126802430A4B30331A6006E0084A1A
:101B4000303212688243064B30331A607047F9B165
:101B5000034A343212680243014B34331A601CE0EA
:101B600000380240FFFFF6EA103000240030002069
:101B700000004742800E47420024F400001BB700DB
:101B800014000020FFFCFF0F5C014742E0114742B8
:101B90008F4A126882438E4B1A60704739B18C4A63
:101BA000121D126802438A4B1B1D1A6006E0884A08
:101BB000121D12688243864B1B1D1A60704739B193
:101BC000834A0C3212680243814B0C331A6006E0E0
:101BD0007F4A0C32126882437D4B0C331A60704787
:101BE00039B17B4A103212680243794B10331A60C4
:101BF00006E0774A103212688243754B10331A6040
:101C0000704739B1724A243A12680243704B243B40
:101C10001A6006E06E4A243A126882436C4B243BF9
:101C20001A60704739B16A4A203A12680243684B19
:101C3000203B1A6006E0664A203A12688243644BF1
:101C4000203B1A60704739B1614A1C3A126802435E
:101C50005F4B1C3B1A6006E05D4A1C3A12688243E7
:101C60005B4B1C3B1A60704739B1594A143A1268F1
:101C70000243574B143B1A6006E0554A143A126867
:101C80008243534B143B1A60704739B1504A103AA3
:101C9000126802434E4B103B1A6006E04C4A103A61
:101CA000126882434A4B103B1A60704739B1484A68
:101CB0001C3212680243464B1C331A6006E0444A49
:101CC0001C3212688243424B1C331A60704739B190
:101CD0003F4A2032126802433D4B20331A6006E02F
:101CE0003B4A203212688243394B20331A607047D6
:101CF00039B1374A243212680243354B24331A6013
:101D000006E0334A243212688243314B24331A608E
:101D1000704739B12E4A2C32126802432C4B2C33B7
:101D20001A6006E02A4A2C3212688243284B2C3370
:101D30001A60704739B1264A303212680243244B88
:101D400030331A6006E0224A303212688243204B58
:101D500030331A607047012808D11D493C310968A9
:101D600041F008011A4A3C32116007E018493C3141
:101D7000096821F00801164A3C321160704739B1F8
:101D8000134A273A12780243114B273B1A7006E098
:101D90000F4A273A127882430D4B273B1A7070473F
:101DA0000B484030006840F08070094940310860BD
:101DB000704701460020064A283A12680A400AB1D4
:101DC000012000E000207047014926390870704763
:101DD0003438024010B50121C802FFF756FF002138
:101DE0004FF40060FFF751FF10BD00216C4A1168ED
:101DF00047F6FF629143027D83681A4343681A43A2
:101E0000C3681A4303681A4303691A431143644AB7
:101E10001160704700210175016041608160C160FF
:101E2000016170475F49086070475D49091F08609C
:101E300070475B48001F006800F0030070470021F6
:101E4000574B1B1D02681A601A1D11686FF30A01B7
:101E5000D0E901231A43C3681A4303691A431143A3
:101E60004F4A083211607047002101604160816073
:101E7000C160016170474A480C300068C0B27047C9
:101E800008B50146002000904548103008440090F5
:101E90000098006808BD0021414B203302681A6099
:101EA0001B1D42681A601A1D116821F0F701D0E964
:101EB00002231A4303691A4343691A431143384AF8
:101EC0002832116070474FF0FF31016000214160FE
:101ED0008160C16001614161704731482C30006808
:101EE00070472F487C30006870472D497C3108606E
:101EF00070472B484430006870472B490860704792
:101F00002949091D08607047274908310860704752
:101F100025490C31086070472449086070472349FF
:101F2000091D0860704701218143204A0832116071
:101F300070471E490C31086070471B49143908600E
:101F4000704739B1164A383212680243144B38339D
:101F50001A6006E0124A383212688243104B383356
:101F60001A607047014600200D4A303212680A405C
:101F70000AB1012000E000207047094934310860AF
:101F8000704701460020064A303212680A400AB102
:101F9000012000E00020704701493431086070479B
:101FA000042C0140A0802542A0852542AC81254219
:101FB00010B50446FB48844208D101218014FFF784
:101FC00064FE0021A014FFF760FE3CE0F648844266
:101FD00008D101210014FFF747FE00212014FFF76C
:101FE00043FE30E0F148844208D10121C013FFF7DD
:101FF0003BFE0021E013FFF737FE24E0EC4884426B
:1020000008D101214014FFF740FE00216014FFF7C2
:102010003CFE18E0E748844209D101210805FFF79A
:1020200034FE00214FF48010FFF72FFE0BE0E24852
:10203000844208D101214805FFF727FE00214FF413
:102040000010FFF722FE10BD10B50022028802F436
:1020500041520B884C8823438C882343CC882343EC
:102060000C8923434C8923438C892343CC89234304
:102070001A430280838B4FF2FF74234083830B8AC1
:10208000038210BD2DE9F04F0025022300244FF0FC
:10209000010900220026002794469046B0F81CA0B3
:1020A0004FF2400B0AEA0B0AA0F81CA04FF0020AFC
:1020B000A0F820A0858BD1F808A0BAF1020F01D1B9
:1020C00000BF82E0B1F804A0BAF1000F02D14FF0D6
:1020D000010901E04FF00209DFF8E0A2DAF800A000
:1020E0000AF4000ABAF1000F09D0DFF8D0A2DAF83A
:1020F00000A02AF4000ADFF8C4B2CBF800A0DFF891
:10210000BCA20AF17C0ADAF800A0CAF3881CDFF846
:10211000ACA20AF17C0ADAF800A0CAF30278DFF870
:102120009CA2AAF1040ADAF800A00AF03F07DFF83F
:102130008CA2AAF1040ADAF800A00AF4800ABAF51F
:10214000800F08D1DFF878A2BAFBF7FA0AFB0CFA85
:10215000BAFBF8F607E0DFF86CA2BAFBF7FA0AFB65
:102160000CFABAFBF8F6B1F806A0BAF5007F0ED16A
:102170004FEA162A0AEB8A0A4FEA4A0AD1F808B04F
:10218000BAFBFBFA0AF1050A1FFA8AF20FE04FEADE
:10219000491AB6FBFAFA0AEB8A0A4FEA4A0AD1F858
:1021A00008B0BAFBFBFA0AF1050A1FFA8AF24FF0EF
:1021B0000A0AB2FBFAF202F00104A2EB040ACAF323
:1021C0004F034FF6FF7A0AEA0424022B01DBFF2BB0
:1021D00001DD02230024B1F806A04AEA040A4AEA13
:1021E000030AA0F820A0B1F804A0B1F80CB04AEAA4
:1021F0000B0AB1F802B04AEA0B0AB1F800B04AEA99
:102200000B0A4AF4006A4AEA05058583BDE8F08FA7
:102210000021018041808180C180018141818181D3
:10222000C1810721018270470021018041808180A6
:10223000C1800221816000218181704721B1028823
:1022400042F04002028004E002884FF6BF731A4059
:102250000280704721B1828B42F48062828304E065
:10226000828B4FF6FF331A408283704702884FF209
:10227000FF731A40028002880A4302807047B1F55A
:10228000804F04D1028842F48042028004E0028838
:102290004BF6FF731A40028070474FF6FF6291427F
:1022A00004D0028842F48072028004E002884FF673
:1022B000FF631A400280704721B1828842F0040215
:1022C000828004E082884FF6FB731A408280704758
:1022D00021B1828842F01002828004E082884FF6A9
:1022E000EF731A408280704730B500220023848B40
:1022F0004FF240052C40848302240484828B0C8896
:10230000B4F5007F01D00C8814B94FF4807308E055
:102310000C88B4F5407F03D00C88B4F5807F00D1E1
:1023200000238C888D892C434D882C431C4344F416
:1023300000642243828330BD0146888970478181D1
:10234000704721B1028842F40052028004E0028802
:102350004DF6FF731A4002807047018841F48051A6
:102360000180704702460020012901D0108B00E057
:10237000908A70470146088A70471AB183880B43D8
:10238000838002E083888B438380704730B50024CC
:1023900000230C110125A540ABB2AAB185881D43CD
:1023A000858014E00030014000380040003C0040CF
:1023B0000034014000500140005401400838024000
:1023C000001BB7000024F40085889D43858030BD44
:1023D0000246002013890B400BB1012000E00020D1
:1023E0007047CA4302817047F0B5024600200024BE
:1023F0000023002501F00F070126BE40B4B20B11E7
:1024000001269E40B3B2968806EA03051689264047
:1024100016B10DB1012000E00020F0BD10B5002282
:1024200001F00F040123A3409AB2D343038110BDEE
:1024300010B501218803FFF728FC00214FF48040EC
:10244000FFF723FC10BD1C49086070471B49086258
:10245000704730B500228B071C0F0F2303FA04F2DC
:10246000154B08338C1053F824309343124C083426
:102470008D1044F8253023468C1053F824308C07F7
:10248000240F00FA04F423430B4C08348D1044F855
:10249000253030BD0949DC310860704708490860C3
:1024A0007047002004492031096801F4807109B1A6
:1024B000012000E000207047003801400000274262
:1024C0000004274210B50446FE48844208D1012189
:1024D0000846FFF7DAFB00210120FFF7D6FB9DE05D
:1024E000B4F1804F08D101210846FFF7BDFB002160
:1024F0000120FFF7B9FB91E0F348844208D10121A4
:102500000220FFF7B1FB00210220FFF7ADFB85E0C1
:10251000EE48844208D101210420FFF7A5FB0021E9
:102520000420FFF7A1FB79E0E948844208D10121AA
:102530000820FFF799FB00210820FFF795FB6DE0CD
:10254000E448844208D101211020FFF78DFB0021CF
:102550001020FFF789FB61E0DF48844208D10121A8
:102560002020FFF781FB00212020FFF77DFB55E0B5
:10257000DA48844208D101210220FFF786FB0021BE
:102580000220FFF782FB49E0D548844209D10121AE
:102590000804FFF77AFB00214FF48030FFF775FB4A
:1025A0003CE0D048844209D101214804FFF76DFB8B
:1025B00000214FF40030FFF768FB2FE0CA48844247
:1025C00009D101218804FFF760FB00214FF480202E
:1025D000FFF75BFB22E0C548844208D1012140207F
:1025E000FFF742FB00214020FFF73EFB16E0C0480A
:1025F000844208D101218020FFF736FB0021802092
:10260000FFF732FB0AE0BB48844207D10121801565
:10261000FFF72AFB0021A015FFF726FB10BD0022C3
:102620000288A84B98420ED0AC4B98420BD0B0F128
:10263000804F08D0A44B984205D0A44B984202D0BA
:10264000A34B984204D14FF68F731A404B881A431C
:10265000A04B984207D0A04B984204D04FF6FF43BE
:102660001A400B891A4302804B68C3620B880385AA
:10267000944B984202D0994B984201D18B7A0386B1
:102680000123838270474FF0FF31416000210180B8
:1026900001814180817270470185828270470A46BC
:1026A000002101884FF68F73194011430180704754
:1026B00041627047C16270470146486A70470146EF
:1026C000088D704721B1028842F00202028004E0C6
:1026D00002884FF6FD731A400280704721B10288CC
:1026E00042F00402028004E002884FF6FB731A40B5
:1026F0000280704721B1028842F08002028004E02B
:1027000002884FF67F731A400280704702884FF6A6
:10271000F7731A40028002880A43028070470288D9
:102720004FF6FF431A40028002880A430280704736
:1027300021B1028842F00102028004E002884FF6D3
:10274000FE731A400280704770B5002400220023F7
:10275000058C4FF6FE7635400584028C8388048B09
:102760004FF68F752C40B51E2C400D882C43751EDE
:102770002A408D892A434D882A43524DA84202D0CF
:10278000564DA84213D14FF6F7752A40CD892A43FA
:102790004FF6FB752A408D882A434FF6FF652B4084
:1027A0004FF6FF552B400D8A2B434D8A2B438380D8
:1027B00004838D684563028470BD70B500240022D7
:1027C0000023058C4FF6EF7635400584028C838814
:1027D000048B48F6FF752C404FF6FF452C400D88C2
:1027E0004FF6FF7606EA05252C434FF6DF752A40A3
:1027F0008D8906EA05152A434D8806EA05152A4300
:10280000304DA84202D0354DA8421DD14FF67F75FC
:102810002A40CD894FF6FF7606EA05152A434FF682
:10282000BF752A408D8806EA05152A434FF6FF3505
:102830002B404FF2FF752B400D8A06EA85052B438E
:102840004D8A06EA85052B43838004838D68856362
:10285000028470BD70B5002400220023058C4FF661
:10286000FF6635400584028C8388848B4FF68F7514
:102870002C404FF6FC752C400D882C434FF6FF552D
:102880002A408D894FF6FF7606EA05252A434D88B2
:1028900006EA05252A430B4DA84202D00F4DA84257
:1028A00038D14FF2FF752A40CD894FF6FF7606EA00
:1028B00005252A434FF6FF352A408D8806EA05256F
:1028C0002A4319E0000001400004004000080040D5
:1028D000000C0040001000400014004000040140C3
:1028E0000040014000440140004801400018004001
:1028F000001C0040002000404EF6FF752B404DF6B6
:10290000FF752B400D8A06EA05152B434D8A06EA12
:1029100005152B43838084838D68C563028470BD55
:1029200070B5002200230024058C4EF6FF7635405A
:102930000584038C8488828B48F6FF752A404FF605
:10294000FF452A400D884FF6FF7606EA05252A4303
:102950004DF6FF752B408D8906EA05352B434D88D2
:1029600006EA05352B43FE4DA84202D0FD4DA84294
:1029700008D14BF6FF752C400D8A4FF6FF7606EA1C
:1029800085152C43848082838D680564038470BD23
:10299000002101804180818081608181C18101822B
:1029A0004182704770B50346002000241846183055
:1029B00001258D40ACB21D8CA5431D8409B10829A9
:1029C0000AD100EB610005684FF68F76354005604F
:1029D0000568154305600FE00D1FC5F34E0528443B
:1029E000056848F6FF763540056005684FF6FF76C6
:1029F00006EA02263543056070BD41637047816376
:102A00007047C1637047016470470A460021018B1B
:102A10004FF68F7319401143018370470A46002116
:102A2000018B48F6FF7319404FF6FF7303EA022348
:102A30001943018370470A460021818B4FF68F733B
:102A400019401143818370470A460021818B48F663
:102A5000FF7319404FF6FF7303EA02231943818382
:102A600070470A460021018B4FF6F7731940114356
:102A7000018370470A460021018B4FF2FF73194012
:102A80004FF6FF7303EA02231943018370470A4696
:102A90000021818B4FF6F7731940114381837047F2
:102AA0000A460021818B4FF2FF7319404FF6FF73E6
:102AB00003EA02231943818370470A460021018BF0
:102AC0004FF6FB7319401143018370470A460021FA
:102AD000018B4FF6FF3319404FF6FF7303EA0223D1
:102AE0001943018370470A460021818B4FF6FB731F
:102AF00019401143818370470A460021818B4FF6AC
:102B0000FF3319404FF6FF7303EA02231943818311
:102B100070470A460021018B4FF67F73194011431D
:102B2000018370470A460021018BC1F30E014FF665
:102B3000FF7303EA02231943018370470A46002109
:102B4000818B4FF67F7319401143818370470A468A
:102B50000021818BC1F30E014FF6FF7303EA0223BC
:102B60001943818370470A460021018C4FF6FD739B
:102B700019401143018470470A460021018C4FF629
:102B8000F77319401143018470470A460021018CF4
:102B90004FF6DF7319404FF6FF7303EA0213194330
:102BA000018470470A460021018C4FF67F7319405B
:102BB0004FF6FF7303EA02131943018470470A4674
:102BC0000021018C4FF6FF5319404FF6FF7303EAC3
:102BD00002231943018470470A460021018C4FF2F9
:102BE000FF7319404FF6FF7303EA02231943018470
:102BF00070470A460021018C4DF6FF7319404FF6CD
:102C0000FF7303EA023319430184704730B5002390
:102C100001248C40A3B2048C9C430484048C02FAEB
:102C200001F5ADB22C43048430BD30B5002304243B
:102C30008C40A3B2048C9C430484048C02FA01F5FA
:102C4000ADB22C43048430BD828B4FF2FF331A4067
:102C50008283828B4FF6FF7303EA01231A43828338
:102C60007047F0B50C461546002100220026078C5F
:102C70004EF6FF7C07EA0C070784818B028C4FF627
:102C8000FF7707EA043640F6FF4739404FF6FF77F3
:102C900007EA052739434FF6FF7707EA0337394339
:102CA00045F6FF773A4046F480573A4381830284E1
:102CB000F0BD828B4FF6F3731A408283828B0A43F6
:102CC00082837047F0B50C4615460021002200268D
:102CD000078C4FF6FF6C07EA0C070784818B028C88
:102CE0004FF6FF7707EA04264FF60C7739404FF688
:102CF000FF7707EA03172F4339434FF2FF573A4054
:102D000046F480773A4381830284F0BD028B4FF210
:102D1000FF331A400283028B4FF6FF7303EA01234D
:102D20001A4302837047F0B50C4615460021002275
:102D30000026078C4FF6EF7C07EA0C070784018B0F
:102D4000028C4FF6FF7707EA041640F6FF4739403A
:102D50004FF6FF7707EA033739434FF6FF7703E073
:102D6000000001400004014007EA052739434FF6FF
:102D70005F773A4046F010073A4301830284F0BD82
:102D8000028B4FF6F3731A400283028B0A430283CD
:102D90007047F0B50C46154600210022068C4FF610
:102DA000FE773E400684018B028C4FF60C76314054
:102DB0007E1C06EA03162E4331434FF6F576324069
:102DC00044F00106324301830284F0BD70B505462C
:102DD0000C46208850B92389A28861882846FFF7CD
:102DE000D8FFE1882846FFF7CBFF25E0208804289C
:102DF0000AD12389A28861882846FFF794FFE188D9
:102E00002846FFF783FF17E0208808280AD1238986
:102E1000A28861882846FFF755FFE1882846FFF71A
:102E200048FF09E02389A28861882846FFF719FF37
:102E3000E1882846FFF708FF70BD0021018041802E
:102E4000012181800021C180018170472DE9F0417D
:102E500005460C4600260127608808B9022600E0D6
:102E60000026A088012801D1022700E00127208840
:102E7000A0B92389A28861882846FFF78AFFE188E4
:102E80002846FFF77DFF23893A4631462846FFF75B
:102E90004AFFE1882846FFF739FF13E02389A2881B
:102EA00061882846FFF73FFFE1882846FFF72EFF9D
:102EB00023893A4631462846FFF76BFFE1882846CA
:102EC000FFF75EFFBDE8F0810146486B70470146A1
:102ED000886B70470146C86B70470146086C7047A5
:102EE0000A884B881A438B881A43CB881A430B896C
:102EF0001A434B891A438B891A43A0F84420704720
:102F00000021018041808180C180018141818181D6
:102F1000704731B1B0F8442042F40042A0F8442098
:102F200005E0B0F84420C2F30E02A0F84420704738
:102F300021B1828842F00402828004E082884FF648
:102F4000FB731A408280704721B1828842F00102EF
:102F5000828004E082884FF6FE731A4082807047B8
:102F60001AB183890B43838102E083898B43838178
:102F700070478182704702460020138A0B400BB1D4
:102F8000012000E000207047CA430282704730B53C
:102F90000246002000230024158A05EA01039589D2
:102FA00005EA010413B10CB1012000E0002030BD9E
:102FB000CA430282704741EA0203A0F848307047D2
:102FC0001AB183890B43838102E083898B43838118
:102FD000704721B1828842F00802828004E0828832
:102FE0004FF6F7731A408280704701894FF6F872E6
:102FF0001140018170470A46002101894FF68F7305
:10300000194011430181704730B504460D462946E9
:103010002046FFF7F0FF208940F00700208130BDF7
:103020002DE9F04104460D4616461F46602D06D197
:103030003B46012231462046FFF775FE05E03B4640
:10304000012231462046FFF7A4FE29462046FFF71D
:10305000D2FF208940F007002081BDE8F08130B523
:103060000C4600210189C9B24FF6FF7505EA032518
:10307000154325432943018130BD2DE9F041054623
:103080000E4617469846002443463A46314628469F
:10309000FFF7E5FF2C894FF6F870044044F0070471
:1030A0004FF68F70044044F070042C81BDE8F0812D
:1030B000F0B504460D4616461F463B4632462946A5
:1030C0002046FFF7CCFF208940F480402081F0BDEE
:1030D00082884FF68F731A40828082880A438280EA
:1030E000704702894FF6F8731A40028102890A4339
:1030F0000281704702894FF67F731A40028102896C
:103100000A4302817047F0B50C4615461E46002161
:10311000002200230189028B038C4FF6F877394097
:1031200021434FF6FC473A4040F201173A434FF62D
:10313000DD773B404FF6FF7707EA06172F433B4307
:10314000018102830384F0BD21B1828842F08002B4
:10315000828004E082884FF67F731A408280704735
:10316000A0F850107047000010B50446FA48844299
:1031700008D101211020FEF788FD00211020FEF764
:1031800084FD57E0F548844209D101214804FEF747
:103190006BFD00214FF40030FEF766FD4AE0F04879
:1031A000844209D101218804FEF75EFD00214FF41D
:1031B0008020FEF759FD3DE0EA48844209D1012113
:1031C000C804FEF751FD00214FF40020FEF74CFD2E
:1031D00030E0E548844209D101210805FEF744FDAD
:1031E00000214FF48010FEF73FFD23E0DF488442CA
:1031F00008D101212020FEF748FD00212020FEF704
:1032000044FD17E0DA48844209D101218807FEF71E
:103210002BFD00214FF08040FEF726FD0AE0D54847
:10322000844207D101214005FEF71EFD0021600503
:10323000FEF71AFD10BD2DE9FF4705460E46002496
:10324000A14600BFA046B08900B100BF2C8A24F47B
:103250004054F08804432C82AC8941F20C608443D2
:10326000B08831890843718908430443AC81AC8A32
:1032700024F44074B0890443AC826846FEF785FBB1
:10328000B548854202D0B948854202D1DDF80C909C
:1032900001E0DDF80890A88900F4004040B109EB96
:1032A000C90000EB091031684900B0FBF1F707E0F5
:1032B00009EBC90000EB091031688900B0FBF1F798
:1032C0006420B7FBF0F004012009642101FB1078B1
:1032D000A88900F4004040B1322000EBC800B0FBE8
:1032E000F1F000F00700044308E0322000EB081082
:1032F0006421B0FBF1F000F00F0004432C81BDE825
:10330000FF874FF41651016000218180C180018147
:103310000C21418100218181704710B502460020B7
:10332000108A20F470600B884C8823438C882343D8
:10333000CC8823431843108210BD002101804180B6
:103340008180C180704721B1828942F4005282811C
:1033500004E082894DF6FF731A4082817047028B28
:1033600002F47F420283028B0A430283704721B139
:10337000828942F40042828103E08289C2F30E0214
:103380008281704721B1828A42F40062828204E025
:10339000828A4FF2FF731A4082827047C1F308029B
:1033A0008280704701468888C0F308007047028A0F
:1033B0004FF6F0731A400282028A0A430282704773
:1033C00021B1828942F00202828104E082894FF6B3
:1033D000FD731A408281704782894FF2FF731A4051
:1033E000828182890A4382817047028A4FF6DF73A5
:1033F0001A400282028A0A430282704721B1028A7D
:1034000042F48042028204E0028A4BF6FF731A40C3
:1034100002827047818941F001018181704721B1A9
:10342000828A42F00802828204E0828A4FF6F773B1
:103430001A4082827047028BD2B20283028B42EA28
:1034400001220283704721B1828A42F020028282E7
:1034500004E0828A4FF6DF731A408282704721B1FE
:10346000828A42F01002828204E0828A4FF6EF7371
:103470001A4082827047828A4FF6FB731A4082821A
:10348000828A0A438282704721B1828A42F0020214
:10349000828204E0828A4FF6FD731A40828270476E
:1034A0001AB1838A0B43838202E0838A8B4383822F
:1034B0007047F0B50346002400260025002040F6A2
:1034C0006A17B94200D100BF1846C1F3421401F097
:1034D0001F06012707FA06F5012C01D10C3004E084
:1034E000022C01D1103000E014301AB107682F43CC
:1034F000076002E00768AF430760F0BD02460020A6
:10350000B1F5007F00D100BF13880B400BB1012043
:1035100000E00020704701F40072B2F5007F00D196
:1035200000BFCA430280704770B5024600240023E2
:103530000025002040F66A16B14200D100BFC1F359
:10354000421501F01F03012606FA03F3012D13D1E2
:103550009689334017E0000000100140004400400D
:1035600000480040004C0040005000400014014062
:1035700000780040007C0040022D02D1168A3340C2
:1035800001E0968A33400C12012606FA04F41688EC
:10359000344013B10CB1012000E0002070BD10B523
:1035A0000022002340F66A14A14200D100BF0A1293
:1035B00001249440A3B2DC43048010BD10B5FB4845
:1035C0000088401EF949088008460088A0B904F028
:1035D000E4FFF749086008460068F6490968441A9C
:1035E000F5480068A04201D2F3480460F34800683F
:1035F000A04201D2F148046010BD10B5F048008827
:10360000401CEF490880E948008818B904F0C5FF5C
:10361000E8490860E5480088401CE449088010BD7E
:1036200010B5002400BF00BF00F0EAF9044600BF57
:10363000FFF7E3FF00BF1021E24800F054FB00BF9A
:10364000FFF7BCFF00BF204600F0DEF900BF00BF5F
:1036500010BD10B5FFF7E4FF10BD70B500260020C7
:10366000D7490880D1490880D2490860D04908600C
:10367000D1490860D1490860D3490860002400BFDF
:1036800000F0BEF9064600BF00250BE00020CA4945
:103690000860FFF7B2FFFFF791FFC74800680444D6
:1036A000681C85B2002DF1D0C74804600020C249D3
:1036B0000860C249086000BF304600F0A5F900BFAD
:1036C00070BD10B50020C149086004F04EFF10BD68
:1036D00010B5FFF7F6FFFFF7C0FFFFF7BAFF10BD09
:1036E00000BFFEE770B505460C46002614B900BFC2
:1036F000FFF7F6FF15B90A20208070BD00BF00BF9C
:1037000000F07EF9064600BFFFF777FF00BF1022EA
:10371000AC49284600F0CEFB00BFFFF74FFF00BFCB
:10372000304600F071F900BF00BF0020208000BFCC
:10373000E3E72DE9F04105460C46002714B900BF28
:10374000FFF7CEFF1DB90A202080BDE8F0811021CF
:10375000284600F097FB0646102E19D200BF00BF86
:1037600000F04EF9074600BFFFF747FF00BF1022E9
:103770002946944800F09EFB00BFFFF71FFF00BFE3
:10378000384600F041F900BF00BF0020208002E071
:103790004FF47A70208000BFD7E710B504F0FDFE2B
:1037A0000446204610BD704700B5014611B900BF60
:1037B000FFF796FF854A106808B1002201E04FF438
:1037C000FA620A8000BD81490860704701460846D8
:1037D0007D4A1268904203D97B4A1268801A00E041
:1037E0000020704770B5002500BF00F009F90546BC
:1037F00000BF7148046800BF284600F005F900BF0B
:103800002046FFF7E3FF0646304670BD70B5002541
:10381000FFF7E8FF044600BF00F0F2F8054600BFDE
:1038200000206549086000BF284600F0EDF800BFA1
:10383000204670BD70B5002500BF00F0E1F80546D8
:1038400000BF5E48046800BF284600F0DDF800BFF6
:103850002046FFF7BBFF0646304670BD70B50546F3
:10386000284600F0D8F80446183C204670BD70B5D4
:103870000546284600F0CFF80446103C204670BDAF
:1038800070B50546284600F0C6F8044600BF20463D
:1038900070BD30B502460B460024D2F1FF359C4185
:1038A00026D24FF6FF74D2F1FF359C410FD26FF054
:1038B0007F44D2F1FF359C4103D2190E444C605C29
:1038C00044E0190C424C645C04F108003EE0FF2423
:1038D000D2F1FF359C4105D2190A3D4C645C04F1DC
:1038E000100033E019463A4C645C04F118002DE0F6
:1038F0004FF6FF750024AD1A9C4115D26FF07F453D
:103900000024AD1A9C4107D2140E44EA0321304C26
:10391000645C04F1200019E0140C44EA03412C4CCF
:10392000645C04F1280011E00024D2F1FF059C4101
:1039300007D2140A44EA0361254C645C04F13000A8
:1039400004E01146224C645C04F1380030BD70B5CF
:1039500004460CB9082070BD204600F05FF805460B
:103960002846F8E770B504460CB9102070BD204613
:1039700000F054F805462846F8E770B504460CB93F
:10398000202070BD204600F049F805462846F8E79B
:103990002DE9F04304460D46002184EA0100694008
:1039A000084317D14020BDE8F08300002A00002022
:1039B000300000202C000020380000203C000020B7
:1039C00028000020480600203400002024000020A9
:1039D000BC4F0208E243E843521C40F1000102EAF6
:1039E000040601EA050730463946FFF752FF8046D4
:1039F000C8F13F094846D6E772B6704762B67047CD
:103A0000EFF3108072B6704780F31088704730BFB4
:103A1000704720BF7047B0FA80F0704790FAA0F06E
:103A2000B0FA80F0704790FAA0F070470146412943
:103A300003DB5A2901DC012200E00022012A08D020
:103A4000612903DB7A2901DC012200E00022012A3E
:103A500001D1012200E000221046704701464129B1
:103A600003DB5A2901DC012200E00022012A08D0F0
:103A7000612903DB7A2901DC012200E00022012A0E
:103A800001D1012200E00022012A08D0302903DB05
:103A9000392901DC012200E00022012A01D10122A2
:103AA00000E00022104670470146612903DB7A29B5
:103AB00001DC012200E00022104670470146412946
:103AC00003DB5A2901DC012200E000221046704786
:103AD0000146302903DB392901DC012200E0002204
:103AE000104670470146302903DB372901DC0122EB
:103AF00000E00022104670470146302901DB3929D9
:103B000007DD412901DB462903DD612903DB662945
:103B100001DC012200E00022104670470146202906
:103B200001D0092901D1012200E00022104670478E
:103B30000146202909D00D2907D00A2905D00C29D2
:103B400003D0092901D00B2901D1012200E0002274
:103B5000104670470146202903DB7E2901DC012243
:103B600000E00022104670470146212903DB7E2930
:103B700001DC012200E000221046704701462029A6
:103B800003DB7E2901DC012200E00022012A35D17D
:103B9000202909D00D2907D00A2905D00C2903D0E6
:103BA000092901D00B2901D1012200E000222ABB02
:103BB000412903DB5A2901DC012200E00022012A0D
:103BC00008D0612903DB7A2901DC012200E0002210
:103BD000012A01D1012200E00022012A08D0302967
:103BE00003DB392901DC012200E00022012A01D196
:103BF000012200E000220AB9012200E00022104662
:103C0000704701464AB2002A01DB1F2901DD7F29E6
:103C100001D1012200E000221046704701464129EF
:103C200003DB5A2901DC012200E00022012A02D133
:103C300001F1200200E00A46D0B270470146612936
:103C400003DB7A2901DC012200E00022012A02D1F3
:103C5000A1F1200200E00A46D0B27047F0B5044658
:103C60000B462046FFF7EAFF05461846FFF7E6FF3A
:103C70000646B54201D1012000E000200746384643
:103C8000F0BD70472DE9F04103460C4617460FB9C9
:103C9000BDE8F08103B9FBE70025002202E02D0218
:103CA0002543521C042AFAD3384603F0030C194664
:103CB000BCF1000F08D0624603E001F8014B401E42
:103CC000521C08B1042AF8D30E4601E020C6001F9A
:103CD0000428FBD2314602E001F8014B401E0028C7
:103CE000FAD100BFD4E730B505460C462246002184
:103CF0002846FFF7C7FF30BD2DE9F04F85B00746D6
:103D000088469146B9F1000F02D105B0BDE8F08FA9
:103D100007B9FAE7B8F1000F00D1F6E746463D468D
:103D2000AE4205D94A464146384600F03FFDECE731
:103D30004C463819451E08EB0400461EA81B04908B
:103D40000498042834D305F00300029006F0030120
:103D50000191DDE90110884201D1012000E000203D
:103D600000900098012823D10298032810D00298CF
:103D700040B2039008E016F8010905F80109641E35
:103D80000398401E40B2039014B103980028F2DA61
:103D9000A5F1030AA6F1030B04E05BF804094AF855
:103DA0000409241F042CF8D20AF103050BF10306C1
:103DB00004E016F8010905F80109641E002CF8D189
:103DC00000BFA2E72DE9F84F80468946154615B990
:103DD0000120BDE8F88FB8F1000F01D10020F8E70D
:103DE000B9F1000F01D10020F3E70124294608EBC7
:103DF000050209EB050302F0030C03F0030BDC459D
:103E000001D1012000E0002000900098012829D174
:103E1000BCF1000F12D0E2460AE0521E5B1E107881
:103E200093F800E0704500D00024491EAAF1010A71
:103E3000012C03D111B1BAF1000FEED1012C11D137
:103E400016461F4608E0361F3F1F3068D7F800E0CF
:103E5000704500D00024091F012C01D10429F2D2A1
:103E600032463B4608E0521E5B1E107893F800E095
:103E7000704500D00024491E012C01D10029F2D147
:103E80002046A6E710B502460B461146002001E089
:103E9000491C401C19B10C780CB19842F8D310BDE4
:103EA00030B504464FF0FF312046FFF7EBFF0546E3
:103EB000284630BD70B504460D4616460CB90020A4
:103EC00070BD0DB90020FBE721462A46002304E01F
:103ED00010780870491C521C5B1C21B11AB1107873
:103EE00008B1B342F4D301B10AB90020E8E7B34204
:103EF00001D2002008702046E2E770B504460D4666
:103F00004FF0FF3229462046FFF7D4FF06463046E1
:103F100070BD70B503460C4615460BB9002070BD48
:103F20000CB90020FBE70DB91846F8E7194600E088
:103F3000491C11B108780028FAD109B90020EEE730
:103F40002246002604E010780870491C521C761C9A
:103F500021B11AB1107808B1AE42F4D301B10AB957
:103F60000020DCE7002008701846D8E770B504464A
:103F70000D464FF0FF3229462046FFF7CAFF06469E
:103F8000304670BD2DE9F04305460B469446BCF122
:103F9000000F02D10020BDE8F08335B90BB9002035
:103FA000F9E7187842421046F5E713B92A78104627
:103FB000F1E729461C460F4626467F1C761C4FF02B
:103FC000000805E0491C641C7F1C761C08F10108F0
:103FD000087894F80090484505D1087818B117B1D1
:103FE0000EB1E045EED3E04501D10020D3E70878DB
:103FF00094F80090484505D0087894F80090A0EB1C
:1040000009020BE0087808B9002207E02FB90EB9C1
:10401000002203E03078424200E03A781046BAE7E6
:1040200070B504460D464FF0FF3229462046FFF793
:10403000A9FF0646304670BD2DE9F74F82B0804695
:104040000E46049818B9002005B0BDE8F08FB8F10D
:10405000000F09D10EB90020F6E73078FFF7DEFD3A
:1040600007467C422046EFE73EB998F80000FFF78C
:10407000D5FD05462C462046E6E7C146B246C84671
:10408000C3465646CDF804A0D8460BF1010B019E5D
:10409000701C0190C84699F80000FFF7BFFD054667
:1040A00056469AF80000FFF7B9FD07460020009039
:1040B00015E009F101090AF1010A0BF1010B019860
:1040C000401C01900098401C009099F80000FFF7F8
:1040D000A5FD05469AF80000FFF7A0FD0746BD4282
:1040E0000BD199F8000040B1BBF1000F05D0019849
:1040F00018B1049900988842DBD30499009888424B
:1041000001D10020A0E7BD4201D0EC1B16E00DB9A3
:10411000002413E0BBF1000F0AD1019808B9002474
:104120000CE001990878FFF779FD07467C4205E02D
:104130009BF80000FFF772FD05462C46204683E7FA
:1041400070B504460D464FF0FF3229462046FFF772
:1041500073FF0646304670BD30B504460B46154623
:104160000CB9002030BD0BB90020FBE7214600222E
:1041700001E0491C521C31B1087820B10878A842EE
:1041800001D09A42F5D309B90020EBE79A4201D356
:104190000020E7E70878A84201D00020E2E70846BF
:1041A000E0E770B505460C4622464FF0FF31284641
:1041B000FFF7D2FF0646304670BD2DE9F0430546B5
:1041C0000E46174615B90020BDE8F0830EB9002051
:1041D000FAE72C46A6F1010949462046FFF752FEB0
:1041E000804644440CB90020EEE700E0641EAC4277
:1041F00002D02078B842F9D12078B84201D000200E
:10420000E2E72046E0E770B505460C4622464FF04F
:10421000FF312846FFF7D1FF0646304670BD70B526
:1042200004460D4616460CB9002070BD0BB900209F
:10423000FBE721461A4605E00878A84200D10E7037
:10424000491C521E19B1087808B1002AF4D1204641
:10425000EBE7F0B504460D4616464FF0FF33324605
:1042600029462046FFF7DBFF07463846F0BD2DE91B
:10427000FF4F06460F4615461EB9002004B0BDE8A4
:10428000F08F0FB90020F9E70DB90020F6E7681CA0
:1042900000B101E04FF0FF30039029463046FFF7B0
:1042A000F1FD804638460399FFF7ECFD04460CB952
:1042B0003046E3E7444501D90020DFE706EB080B71
:1042C000BBF1000F01D10020D8E707EB040BBBF1D5
:1042D000000F01D10020D1E7A8EB040002904FF0BD
:1042E00000090020019000BF06EB09000090224663
:1042F00039460098FFF746FE8246BAF1000F01D119
:10430000012000E00020019009F10109019810B995
:1043100002988145E8D9BAF1000F01D00020ADE73D
:104320000098ABE770B504460D464FF0FF322946C2
:104330002046FFF79CFF0646304670BD2DE9FF4F33
:104340008DB00F4615461A9E1D9818B9002011B061
:10435000BDE8F08F00200390012F01DA01200390C7
:10436000022D01D3242D01D90120039096B33046AC
:10437000FFF7F0FB02900298012802D00120039081
:1043800028E0302E26D0A6F13000C0B207901B984E
:10439000012804D0A6F14100C0B2069003E0A6F1C6
:1043A0006100C0B206900A2D02D80798A84209DB26
:1043B0000A2D09D907980A2804D3A5F10A000699FD
:1043C000884201D9012000E00020059005980128CD
:1043D00000D103901D9C0398002846D1DDF834A03D
:1043E000DDF834A0CDF830A001200B9007E00B9849
:1043F000401CC0B20B900C98B0FBF5F00C900C98E0
:10440000A842F4D21098012800D100E000200990C1
:104410000B9909980844B84225DC002001900B98BC
:10442000B84201DA0B9800E038460A903EB1B8462F
:104430000A98391A0998081AC0B2089006E0DDE90E
:104440000910084400F0FF08002008900898002890
:1044500006DD302E01D1012000E00020049004E0B0
:104460000020049001E001200390039800B1B846B9
:1044700044441C9808B100202070641E4FF00009CD
:1044800041E00398A8BBBAF1000F02D1B9F1000FC7
:104490001CD1BAFBF5F005FB10A000F0FF0BBBF13F
:1044A0000A0F04D20BF1300004F801090BE01B984D
:1044B000012804D00BF1370004F8010903E00BF1E7
:1044C000570004F80109BAFBF5FA1AE01098012820
:1044D00010D1049808B9019828B1049850B1A8F1F6
:1044E0000100484506D12D2004F801090120019062
:1044F00007E003E02EB104F8016902E03F2004F870
:10450000010909F10109C145BBD3039808B1002095
:104510001DE71D981BE72DE9FF5F05460E46174670
:104520001C46DDE90F9ADDF8388000233A46314613
:1045300028468DE81007FFF701FF8346584604B070
:10454000BDE8F09F2DE9FF4F85B0044689461F4620
:10455000DDE913AB002C02DA6542012601E02546B5
:10456000002612983346CDE902ABCDE900704946EA
:104570002846079AFFF7E2FE8046404609B0BDE8AC
:10458000F08F2DE9FF4F8BB0064689461546B9F1ED
:10459000000F02D10DF1240900BFC9F8006018987E
:1045A00010B907A8189000BF0021189801701EB913
:1045B00000200FB0BDE8F08F012D01D0242D01D9CE
:1045C0000020F6E734462078FFF7B2FA039004E0C3
:1045D000641C2078FFF7ACFA039003980128F7D009
:1045E00020782B2802D02D280BD103E0641C4FF03B
:1045F000000B09E00E98012800D1641C4FF0010B5C
:1046000002E04FF0000B00BF00BF0A9425B1082D57
:104610001CD0102D36D11EE02078302814D1641C17
:104620002078582802D078280BD100BF1025677851
:104630003846FFF761FA8246BAF1010F00D1641CD7
:1046400001E0082500BF00E00A251CE020783028A2
:1046500000D1641C17E02078302812D1641C207827
:10466000582802D078280AD100BF67783846FFF76B
:1046700043FA8246BAF1010F00D1641C00E000BF8A
:1046800000BF00E000BF00BF4FF000080020029014
:10469000019040E027783846FFF7E0F9059005984B
:1046A000012836D13846FFF713FA069006980128FC
:1046B00004D1A7F13000C0B208900FE03846FFF7F0
:1046C000F3F904900498012804D1A7F15700C0B26F
:1046D000089003E0A7F13700C0B208900898A842FC
:1046E00014DA029880B9304850F82500404509D3C3
:1046F00008FB05F8089880440898804504D20120FA
:10470000029001E001200290641C04E0012001906D
:1047100001E00120019001980028BBD002980128F7
:1047200001D14FF0FF380A98844202D0C9F8004006
:1047300001E0C9F80060189880F800B0404638E7FA
:10474000F8B504460D461646002003463246294673
:1047500000902046FFF715FF07463846F8BD2DE9C3
:10476000FC4105460E46174601A801233A4631464C
:1047700000902846FFF705FF04469DF8040040B965
:10478000B4F1004F02D36FF0004000E020468046B5
:1047900007E0B4F1004F02D34FF0004000E0604268
:1047A00080464046BDE8FC81BC500208002800D18C
:1047B0007047002900D17047002A00D170472DE9C9
:1047C000F81F00F0030301F00304A34211D1C3F169
:1047D000040303F00303012B1DD3012A00D2F2E0EE
:1047E00011F8014B00F8014BA3F10103A2F1010202
:1047F000F1E700F0010301F00104A34200D094E0CE
:10480000012B44D311F8014B00F8014BA3F1010334
:10481000A2F10102F4E7B2F5B47F26D3B1E8F81FA4
:10482000A0E8F81FB1E8F81FA0E8F81FB1E8F81FEA
:10483000A0E8F81FB1E8F81FA0E8F81FB1E8F81FDA
:10484000A0E8F81FB1E8F81FA0E8F81FB1E8F81FCA
:10485000A0E8F81FB1E8F81FA0E8F81FB1E8F81FBA
:10486000A0E8F81FA2F5B472D5E7282A06D3B1E86C
:10487000F81FA0E8F81FA2F12802F6E7042A06D3E1
:1048800051F8043B40F8043BA2F10402F6E7202A69
:1048900042D331F8023B20F8023B31F8023B20F8CA
:1048A000023B31F8023B20F8023B31F8023B20F892
:1048B000023B31F8023B20F8023B31F8023B20F882
:1048C000023B31F8023B20F8023B31F8023B20F872
:1048D000023B31F8023B20F8023B31F8023B20F862
:1048E000023B31F8023B20F8023B31F8023B20F852
:1048F000023B31F8023B20F8023B31F8023B20F842
:10490000023B31F8023B20F8023B31F8023B20F831
:10491000023BA2F12002BAE7022A06D331F8023B99
:1049200020F8023BA2F10202F6E7102A42D311F866
:10493000013B00F8013B11F8013B00F8013B11F885
:10494000013B00F8013B11F8013B00F8013B11F875
:10495000013B00F8013B11F8013B00F8013B11F865
:10496000013B00F8013B11F8013B00F8013B11F855
:10497000013B00F8013B11F8013B00F8013B11F845
:10498000013B00F8013B11F8013B00F8013B11F835
:10499000013B00F8013B11F8013B00F8013B11F825
:1049A000013B00F8013B11F8013B00F8013BA2F18B
:1049B0001002BAE7012A06D311F8013B00F8013BC7
:1049C000A2F10102F6E7BDE8F81F7047014600209A
:1049D00002E0491C421CD0B20A78002AF9D1704783
:1049E0002DE9F04105460E4614460027FB480078A5
:1049F00020B1112020700020BDE8F0812878012826
:104A000008D0022807D0032802D0042804D100E0EF
:104A100000BF00BF00BF03E0012020700020EBE7D3
:104A200000BF03F0FFFC0746686930603068FFF79D
:104A3000CDFF8046384603F0F9FC00202070404648
:104A4000DAE72DE9F04105460E4614460027E34813
:104A5000007818B112202070BDE8F0812878012874
:104A600008D0022807D0032802D0042804D100E08F
:104A700000BF00BF00BF02E001202070ECE700BFD4
:104A800003F0D0FC07466E61384603F0CFFC0020EF
:104A9000207000BFE0E7F0B5024612F8384F957875
:104AA0005678383A0B4618680FE000F10B073F5D67
:104AB000B74300F10B0C0CF8047067463F5D17B963
:104AC000877AAF4387721B1D18680028EDD1F0BDAF
:104AD000C349C44A1278885CC349095CC04A515C26
:104AE00001EBC001C14A1170704710B5002403F0FA
:104AF00099FC0446B9480078F8B9BD480078E0B997
:104B0000FFF7E6FFBB48B949097850F82100BA49D8
:104B10000860B6480078B949097888420DD0B6488F
:104B20000068C06B401CB4490968C863B448006899
:104B3000401CB349086003F090FC204603F076FC6B
:104B400010BD70B501460024AE4D2D68EC61AD4C32
:104B5000246821620B4618681BE0AA4C246894F86C
:104B6000385000F10B04645DA64D2D6895F839505E
:104B70002C43A44D2D6895F8386000F10B05AC5519
:104B8000847AA04D2D6895F83A502C4384721B1DF1
:104B900018680028E1D19B4C246894F83820924C86
:104BA000A45C984D2D6895F83950AC438E4DAC54AB
:104BB0002C46A45C44B9934C246894F83A50894C30
:104BC0002478AC43874D2C7070BD2DE9FF4F83B026
:104BD00081460E461546DDF840800020009030608A
:104BE000CA46DAF8004018E02078062807D2DFE845
:104BF00000F00604050307080AE009E008E000BF2A
:104C000000BF012088F80000002007B0BDE8F08F49
:104C100000BF0AF1040ADAF80040002CE4D16F4822
:104C2000007820B1022088F800000020EDE77048ED
:104C3000007820B10D2088F800000020E5E7002072
:104C4000029001908346CA46DAF8004003F0EAFB7E
:104C5000009057E02078062843D2DFE800F04215A4
:104C600026034344208960B12089401E208110C65C
:104C700001200290002001C50198401C80B20190E3
:104C800001E04BF0010B38E0606858B1606801C585
:104C90000020606010C6012002900198401C80B284
:104CA000019001E04BF0020B27E06768F88AA8B199
:104CB0003969081D3861086801C5B96838698842D2
:104CC00001D178683861F88A401EF88210C6012048
:104CD00002900198401C80B2019001E04BF0040B5F
:104CE0000BE000BF00BF009803F0A0FB0020306085
:104CF000012088F80000019887E700BF0AF1040A44
:104D0000DAF80040002CA5D10298012809D1002032
:104D10003060009803F08AFB002088F800000198BA
:104D200073E73848006890F834004BF0800108437E
:104D30003449096881F8340000203249096881F853
:104D4000350030490698096808634846FFF7F9FEC0
:104D5000009803F06BFBFFF7C8FE03F063FB0090C5
:104D60002848006890F8350020B1012819D00228A1
:104D700016D100E000BF23480068C4692CB110C6FA
:104D8000002030600120019009E001201D490968E0
:104D900081F8350049461B480068FFF77CFE06E0B5
:104DA00000BF494617480068FFF775FE00BF00BF07
:104DB0001448006890F8350020B1012842D002283C
:104DC0003FD138E02078062824D2DFE800F0231D08
:104DD0001E032425002001C528E000005900002002
:104DE000505102085D0000205E0000205C000020A1
:104DF0005A000020101B0020740000205B000020DF
:104E0000400000206C00002000BFF9480068406AA4
:104E100001C50BE000BF00BF009803F007FB0020B6
:104E20003060012088F800000198EEE600BF002005
:104E300088F800000CE0002001C50E2088F8000072
:104E400006E000BF002001C50A2088F8000000BF6E
:104E500000BF0020E649096881F83400E449096888
:104E600081F83500E2490968C861E14909680862CA
:104E7000DF4909684862009803F0D8FA0198C4E64F
:104E80007CB5002514E06946284602F02AFC064657
:104E900066B9D84850F8254044B1012C06D0D4E971
:104EA000020100EB8100A0640198E064681CC5B2B7
:104EB0003F2DE8DD7CBD00BF00BF02E0C82002F04E
:104EC00037FDCD4800780028F8D0CC480068642130
:104ED000B0FBF1F0C94908600846006828B9002015
:104EE000C7490870FF2002F03CFC03F09BFA04461F
:104EF000C248006864214843C2490860204603F064
:104F000095FA00BF03F08EFA0446BE480068BE4919
:104F100008600020BB490860204603F087FABA48C1
:104F20000068B6490968B0FBF1F0C0F16400B4490B
:104F3000087003F02CF9FFF7A3FF642002F0F8FCDF
:104F4000E0E700B587B0032000218022AF4BCDE918
:104F50000132CDE903104FF6FE703E23AC4A0090BB
:104F6000AFF2AD0002F0CFF906AAAAA13E2002F0EE
:104F70003AFB07B000BD002400BF00BF03F052FAA7
:104F80000446A0480068401C9E490860204603F083
:104F90004DFA03F0FAF8F1E700B587B003200021DD
:104FA0008022A04BCDE90132CDE903104FF6FF700E
:104FB0003F239D4A0090AFF2410002F0A4F906AAF7
:104FC0009AA13F2002F00FFB07B000BD04E00022D1
:104FD00000F8012B4A1E91B20029F8D1704770B534
:104FE00041F268019548FFF7F1FF002411E0601CD1
:104FF00085B204EB4400914901EBC00305EB450089
:1050000001EBC006002018705E608DA05861601C26
:1050100084B2AE2CEBD304EB4400884901EBC0030F
:1050200000201870586086A05861084685490860BD
:1050300070BD70B54FF4F2618348FFF7C7FF4FF4BE
:1050400080716C48FFF7C2FF002413E0601CC5B2FA
:1050500004EB440000EBC4007B4901EBC00305EB0B
:10506000450000EBC50001EBC0065E6174A0186549
:10507000601CC4B2152CE9D304EB440000EBC4005F
:10508000714901EBC003002058616DA01865002034
:105090006E4908606C486E49086070BD00216D4A19
:1050A0001170002004E000216B4A1154411CC8B269
:1050B0000828F8D30021694A1170694A1170694AB9
:1050C00011604B4A116070470020674908606749CA
:1050D0000870674908706749087067490870674930
:1050E00008604849086048490860444908604249E6
:1050F000087063490870704710B503F02FF8FFF788
:10510000E3FFFFF7CBFFFFF794FFFFF768FF00F027
:10511000C7FE00F0B8FF01F0DEFDFFF73DFFFFF72F
:1051200010FF02F091FF03F02DF803F0CDF810BD51
:1051300051480078012808D14C480078FF2804D253
:105140004A480078401C49490870704710B500244F
:1051500049480078012830D103F064F904464348F7
:10516000007820B141480078401E404908703F480F
:105170000078F8B93E480078E0B9FFF7A9FC1D486F
:105180003749097850F821003649086034480078DA
:105190003249097888420DD032480068C06B401C03
:1051A00030490968C86335480068401C33490860C5
:1051B00003F058F9204603F039F910BD10B500246A
:1051C0002D480078012811D103F02CF90446274816
:1051D000007840B926480078FF2804D22448007897
:1051E000401C23490870204603F020F910BD000040
:1051F0006C000020101B00205800002050000020F0
:105200004C000020680000205400002010170020EF
:105210000C19002075432F4F532D494920537461B9
:1052200074000000101900200C1B002075432F4F44
:10523000532D49492049646C650000005806002040
:105240003F00000044000020101C002078000020D7
:10525000700000205D0000205E0000205B00002048
:105260005C000020740000208C0000205900002009
:105270005A00002067000020660000204000002047
:105280008800002010B50024FE480078012821D1B4
:1052900003F0C8F80446FC480078C0B9FB48007821
:1052A00088B1FA480078401EF8490870084600782E
:1052B00028B9204603F0BAF8FFF717FC0AE02046A9
:1052C00003F0B4F806E0204603F0B0F802E0204610
:1052D00003F0ACF810BD10B5EA48007890B9FFF7BC
:1052E000F7FBEB480078EB490870EB48E849097890
:1052F00050F82100E949086008460068E84908605C
:1053000003F097F810BD10B50024022002F010FB46
:1053100003F088F804460020E2490860204603F0C4
:1053200085F8642002F004FB03F07CF80446DD48B5
:105330000068DD4908600120DC490870204603F060
:1053400075F810BD70B5002602F079FF03F06AF819
:105350000646D7480068401CD5490860304603F02F
:1053600065F8C8480078012853D1D248007820B1A8
:10537000012804D0022809D103E001250BE0002513
:1053800009E001250120CB49087004E00125002037
:10539000C849087000BF00BF05B970BDC6480468A1
:1053A00033E003F03FF80646206B50B3206B401EFD
:1053B0002063206B28BB94F8340000F0370040B124
:1053C00014F8340F00F0C800207001206070343CE5
:1053D00002E0002084F8350094F8340000F0080062
:1053E00078B93834A078B54909780843B3490870CA
:1053F0002078B349085C6178084314F83819B04A3A
:1054000050546469304603F011F894F836003F2890
:10541000C7D100BFC1E747F217207047704710B5EA
:1054200090F8382001F10B039B5C90F83940A343BE
:1054300001F10B04A35423469B5C23B98B7A90F8AB
:105440003A40A3438B7210BD2DE9F04F05460F463D
:1054500090469946A87A9B490E5C05F10B00805D49
:1054600011F800B00BEBC60000F0FF0A8A4850F8B4
:105470002A4000202434E0602760207C20EA0800D5
:10548000207484F81190207C243C00F0080068B956
:1054900094F83A008949097808438849087088488F
:1054A000805D94F83910084385498855294620467F
:1054B000FFF7B5FF206A20B12046216AFFF7EBFA1B
:1054C000E5615046BDE8F08F10B5754A1268D061AD
:1054D000734A126892F8383000F10B02D25C704BBC
:1054E0001B6893F839301A436D4B1B6893F83840AA
:1054F00000F10B031A55827A694B1B6893F83A3016
:105500001A438272664A126892F838106C4A525CEA
:10551000634B1B6893F839309A43694B5A541A46C7
:10552000525C42B95E4A126892F83A30634A127885
:105530009A43624B1A7010BD014600228A72002005
:1055400005E0002301F10B021354421CD0B20828DD
:10555000F7D3704705E011F8013B00F8013B531EFB
:105560009AB2002AF7D170472DE9F84F05460F4649
:1055700090469946DDE90AAB0020009002F052FF08
:10558000009051480468002C7AD01C3454F8080C60
:105590004D490860009802F049FF44F81C7CA5764C
:1055A000002020766076606144F818BC44F810ACA6
:1055B00044F8148C0C9824F80C0C24F80A9C002055
:1055C000E077E810207705F00700E076217F0120E2
:1055D0008840A077E17E012088406077002020602D
:1055E0006060E060A0602062A0626062E0622063B0
:1055F000AFF2B43060631C3C002606E0002104F1E9
:10560000540040F82610701CC6B2012EF6DB20466E
:1056100002F014FE02F006FF00901F4840F82540FB
:10562000009802F003FF204602F0ADFD02F0FAFE02
:1056300000902148006860610020A0611E48006859
:1056400010B11D48006884611B4804603834A0789C
:105650001A49097808431949087020781849085CE4
:105660006178084314F83819154A505417480078DF
:10567000401C16490870009802F0D8FE002027E070
:1056800028E0000066000020590000205A00002099
:105690005C0000205B000020101B00207400002034
:1056A0006C000020680000205000002058000020FE
:1056B0008C0000207C000020780000205D0000208D
:1056C0005E0000205051020870000020670000209A
:1056D000BDE8F88F009802F0A9FE4220BDE8F88FDF
:1056E0002DE9F05F04460F4691461E464FF0000B31
:1056F0002078052804D0012030700020BDE8F09FFC
:1057000009F0800ABAF1000F04D029F080094FF0A7
:10571000010801E04FF000080020307002F082FE26
:105720008346B9F1000F2CD0B9F1010F3BD0B9F18C
:10573000020F03D0B9F1030F46D111E0208900EA2E
:105740000705BD4206D1B8F1010F05D12089A84354
:10575000208101E070203070584602F067FE3AE088
:10576000208900EA070535B1B8F1010F05D120897C
:10577000A843208101E070203070584602F056FEA8
:1057800029E0208927EA0005BD4206D1B8F1010FC2
:1057900005D120892843208101E0702030705846CF
:1057A00002F044FE17E0208927EA000535B1B8F180
:1057B000010F05D120892843208101E0702030703D
:1057C000584602F033FE06E0584602F02FFE002550
:1057D0006F20307000BF00BF28468FE72DE9F041F1
:1057E00006460D460027FC48007820B1102028709E
:1057F0000020BDE8F08102F015FE0746F748046876
:1058000084B100684068F549086005202070268151
:1058100000206060F2A0E060384602F007FE002041
:10582000287004E0384602F001FE722028702046FD
:10583000DFE730B501464A6808682AB9CC6860607D
:1058400028B10025456002E0106000B142608B681D
:1058500000259D6230BD2DE9F04106468846174679
:10586000B468002044F8300F24F8048C207900F04C
:10587000DF00207167712079303C88B93834A07816
:10588000D84909780843D74908702078D649085C78
:105890006178084314F83819D34A5054012500E0C0
:1058A00000253046FFF7C5FF2846BDE8F0812DE909
:1058B000F0470446894615464FF0000AC64800786E
:1058C00020B10F2028702046BDE8F08720780528F9
:1058D00003D0012028702046F6E702F0A3FD82469F
:1058E000606808B1012700E00027B9F1000F03D07C
:1058F000B9F1010F3DD119E08FB9B9A0E0600020E6
:105900002070B6480068606000202081B3480460C1
:10591000504602F08BFD00202870002605E050461E
:1059200002F084FD49202870264629E0D4F804803E
:1059300006E0022200214046FFF78DFFD8F80080E4
:10594000B8F1000FF5D1A6A0E06000202070A348B8
:105950000068606000202081A0480460504602F08A
:1059600065FD012F01D1FFF7C0F800202870002647
:1059700006E0504602F05AFD07202870264600BF78
:1059800000BF3046A0E72DE9F04105460E4614461B
:1059900000279148007820B1112020700020BDE838
:1059A000F08102F03FFD07462878052806D03846EA
:1059B00002F03CFD012020700020F0E7E868306034
:1059C0003068FFF703F88046384602F02FFD0020CC
:1059D00020704046E3E72DE9F04105460E461446A7
:1059E00000277D48007818B112202070BDE8F081B2
:1059F00002F018FD07462878052805D0384602F041
:105A000015FD01202070F1E7EE60384602F00EFD32
:105A10000020207000BFE9E7F0B51446059E734FE3
:105A20003F6897F8347047F02007DFF8C0C1DCF812
:105A300000C08CF834700027DFF8B0C1DCF800C07B
:105A40008CF83570694F3F683E63684F3F68B962B4
:105A50000C828B74654F3F688F6047680F6000272A
:105A60004F60C860456805B1696041605F4F3F683D
:105A700097F838205C4FBF5CDFF870C1DCF800C0DD
:105A80009CF839C027EA0C07DFF85CC10CF80270FB
:105A90006746BF5C5FB9554F3F6897F83AC0514FB2
:105AA0003F7827EA0C07DFF83CC18CF80070F0BDA6
:105AB0002DE9F04F89B005460F4691469A46129E51
:105AC000002002904448007828B102203070002065
:105AD00009B0BDE8F08F4648007818B10D2030704D
